{
  "_format": "hh-sol-artifact-1",
  "contractName": "JEFE",
  "sourceName": "contracts/JEFE.sol",
  "abi": [
    {
      "inputs": [
        {
          "internalType": "address",
          "name": "_router",
          "type": "address"
        }
      ],
      "stateMutability": "nonpayable",
      "type": "constructor"
    },
    {
      "anonymous": false,
      "inputs": [
        {
          "indexed": true,
          "internalType": "address",
          "name": "owner",
          "type": "address"
        },
        {
          "indexed": true,
          "internalType": "address",
          "name": "spender",
          "type": "address"
        },
        {
          "indexed": false,
          "internalType": "uint256",
          "name": "value",
          "type": "uint256"
        }
      ],
      "name": "Approval",
      "type": "event"
    },
    {
      "anonymous": false,
      "inputs": [
        {
          "indexed": true,
          "internalType": "address",
          "name": "previousOwner",
          "type": "address"
        },
        {
          "indexed": true,
          "internalType": "address",
          "name": "newOwner",
          "type": "address"
        }
      ],
      "name": "OwnershipTransferred",
      "type": "event"
    },
    {
      "anonymous": false,
      "inputs": [
        {
          "indexed": true,
          "internalType": "address",
          "name": "from",
          "type": "address"
        },
        {
          "indexed": true,
          "internalType": "address",
          "name": "to",
          "type": "address"
        },
        {
          "indexed": false,
          "internalType": "uint256",
          "name": "value",
          "type": "uint256"
        }
      ],
      "name": "Transfer",
      "type": "event"
    },
    {
      "inputs": [
        {
          "internalType": "address",
          "name": "owner",
          "type": "address"
        },
        {
          "internalType": "address",
          "name": "spender",
          "type": "address"
        }
      ],
      "name": "allowance",
      "outputs": [
        {
          "internalType": "uint256",
          "name": "",
          "type": "uint256"
        }
      ],
      "stateMutability": "view",
      "type": "function"
    },
    {
      "inputs": [
        {
          "internalType": "address",
          "name": "spender",
          "type": "address"
        },
        {
          "internalType": "uint256",
          "name": "amount",
          "type": "uint256"
        }
      ],
      "name": "approve",
      "outputs": [
        {
          "internalType": "bool",
          "name": "",
          "type": "bool"
        }
      ],
      "stateMutability": "nonpayable",
      "type": "function"
    },
    {
      "inputs": [
        {
          "internalType": "address",
          "name": "account",
          "type": "address"
        }
      ],
      "name": "balanceOf",
      "outputs": [
        {
          "internalType": "uint256",
          "name": "",
          "type": "uint256"
        }
      ],
      "stateMutability": "view",
      "type": "function"
    },
    {
      "inputs": [],
      "name": "createPair",
      "outputs": [],
      "stateMutability": "nonpayable",
      "type": "function"
    },
    {
      "inputs": [],
      "name": "decimals",
      "outputs": [
        {
          "internalType": "uint8",
          "name": "",
          "type": "uint8"
        }
      ],
      "stateMutability": "view",
      "type": "function"
    },
    {
      "inputs": [
        {
          "internalType": "address",
          "name": "spender",
          "type": "address"
        },
        {
          "internalType": "uint256",
          "name": "subtractedValue",
          "type": "uint256"
        }
      ],
      "name": "decreaseAllowance",
      "outputs": [
        {
          "internalType": "bool",
          "name": "",
          "type": "bool"
        }
      ],
      "stateMutability": "nonpayable",
      "type": "function"
    },
    {
      "inputs": [
        {
          "internalType": "address",
          "name": "spender",
          "type": "address"
        },
        {
          "internalType": "uint256",
          "name": "addedValue",
          "type": "uint256"
        }
      ],
      "name": "increaseAllowance",
      "outputs": [
        {
          "internalType": "bool",
          "name": "",
          "type": "bool"
        }
      ],
      "stateMutability": "nonpayable",
      "type": "function"
    },
    {
      "inputs": [],
      "name": "liqFee",
      "outputs": [
        {
          "internalType": "uint256",
          "name": "",
          "type": "uint256"
        }
      ],
      "stateMutability": "view",
      "type": "function"
    },
    {
      "inputs": [],
      "name": "maxTx",
      "outputs": [
        {
          "internalType": "uint256",
          "name": "",
          "type": "uint256"
        }
      ],
      "stateMutability": "view",
      "type": "function"
    },
    {
      "inputs": [],
      "name": "name",
      "outputs": [
        {
          "internalType": "string",
          "name": "",
          "type": "string"
        }
      ],
      "stateMutability": "view",
      "type": "function"
    },
    {
      "inputs": [],
      "name": "owner",
      "outputs": [
        {
          "internalType": "address",
          "name": "",
          "type": "address"
        }
      ],
      "stateMutability": "view",
      "type": "function"
    },
    {
      "inputs": [],
      "name": "pair",
      "outputs": [
        {
          "internalType": "address",
          "name": "",
          "type": "address"
        }
      ],
      "stateMutability": "view",
      "type": "function"
    },
    {
      "inputs": [],
      "name": "pairCreated",
      "outputs": [
        {
          "internalType": "bool",
          "name": "",
          "type": "bool"
        }
      ],
      "stateMutability": "view",
      "type": "function"
    },
    {
      "inputs": [],
      "name": "router",
      "outputs": [
        {
          "internalType": "contract IUniswapV2Router02",
          "name": "",
          "type": "address"
        }
      ],
      "stateMutability": "view",
      "type": "function"
    },
    {
      "inputs": [
        {
          "internalType": "uint256",
          "name": "_tax",
          "type": "uint256"
        },
        {
          "internalType": "uint256",
          "name": "_liq",
          "type": "uint256"
        },
        {
          "internalType": "uint256",
          "name": "_vault",
          "type": "uint256"
        }
      ],
      "name": "setFees",
      "outputs": [],
      "stateMutability": "nonpayable",
      "type": "function"
    },
    {
      "inputs": [
        {
          "internalType": "uint256",
          "name": "_percent",
          "type": "uint256"
        }
      ],
      "name": "setMaxTx",
      "outputs": [],
      "stateMutability": "nonpayable",
      "type": "function"
    },
    {
      "inputs": [
        {
          "internalType": "address",
          "name": "_vault",
          "type": "address"
        }
      ],
      "name": "setVault",
      "outputs": [],
      "stateMutability": "nonpayable",
      "type": "function"
    },
    {
      "inputs": [],
      "name": "symbol",
      "outputs": [
        {
          "internalType": "string",
          "name": "",
          "type": "string"
        }
      ],
      "stateMutability": "view",
      "type": "function"
    },
    {
      "inputs": [],
      "name": "taxFee",
      "outputs": [
        {
          "internalType": "uint256",
          "name": "",
          "type": "uint256"
        }
      ],
      "stateMutability": "view",
      "type": "function"
    },
    {
      "inputs": [],
      "name": "totalSupply",
      "outputs": [
        {
          "internalType": "uint256",
          "name": "",
          "type": "uint256"
        }
      ],
      "stateMutability": "view",
      "type": "function"
    },
    {
      "inputs": [
        {
          "internalType": "address",
          "name": "recipient",
          "type": "address"
        },
        {
          "internalType": "uint256",
          "name": "amount",
          "type": "uint256"
        }
      ],
      "name": "transfer",
      "outputs": [
        {
          "internalType": "bool",
          "name": "",
          "type": "bool"
        }
      ],
      "stateMutability": "nonpayable",
      "type": "function"
    },
    {
      "inputs": [
        {
          "internalType": "address",
          "name": "sender",
          "type": "address"
        },
        {
          "internalType": "address",
          "name": "recipient",
          "type": "address"
        },
        {
          "internalType": "uint256",
          "name": "amount",
          "type": "uint256"
        }
      ],
      "name": "transferFrom",
      "outputs": [
        {
          "internalType": "bool",
          "name": "",
          "type": "bool"
        }
      ],
      "stateMutability": "nonpayable",
      "type": "function"
    },
    {
      "inputs": [
        {
          "internalType": "address",
          "name": "newOwner",
          "type": "address"
        }
      ],
      "name": "transferOwnership",
      "outputs": [],
      "stateMutability": "nonpayable",
      "type": "function"
    },
    {
      "inputs": [],
      "name": "vault",
      "outputs": [
        {
          "internalType": "address",
          "name": "",
          "type": "address"
        }
      ],
      "stateMutability": "view",
      "type": "function"
    },
    {
      "inputs": [],
      "name": "vaultFee",
      "outputs": [
        {
          "internalType": "uint256",
          "name": "",
          "type": "uint256"
        }
      ],
      "stateMutability": "view",
      "type": "function"
    },
    {
      "stateMutability": "payable",
      "type": "receive"
    }
  ],
  "bytecode": "0x60a0604052600260088190556001600955600a55600c805461ff001916905534801561002a57600080fd5b50604051611b33380380611b338339810160408190526100499161027e565b6040518060400160405280600a81526020016925232322902a27a5a2a760b11b815250604051806040016040528060058152602001644ac389464560d81b8152508160039081610099919061034d565b5060046100a6828261034d565b506100b19150503390565b600580546001600160a01b0319166001600160a01b039290921691821790556040516000907f8be0079c531659141344cd1fd0a4f28419497f9722a3daafe3b4186f6b6457e0908290a36001600160a01b0381166101565760405162461bcd60e51b815260206004820152601660248201527f526f757465722061646472657373206973207a65726f0000000000000000000060448201526064015b60405180910390fd5b6001600160a01b0381166080526d314dc6448d9338c15b0a0000000061017c338261019f565b6103e861018a826003610421565b610194919061043e565b600b55506104739050565b6001600160a01b0382166101f55760405162461bcd60e51b815260206004820152601f60248201527f45524332303a206d696e7420746f20746865207a65726f206164647265737300604482015260640161014d565b80600260008282546102079190610460565b90915550506001600160a01b03821660009081526020819052604081208054839290610234908490610460565b90915550506040518181526001600160a01b038316906000907fddf252ad1be2c89b69c2b068fc378daa952ba7f163c4a11628f55a4df523b3ef9060200160405180910390a35050565b60006020828403121561029057600080fd5b81516001600160a01b03811681146102a757600080fd5b9392505050565b634e487b7160e01b600052604160045260246000fd5b600181811c908216806102d857607f821691505b6020821081036102f857634e487b7160e01b600052602260045260246000fd5b50919050565b601f82111561034857806000526020600020601f840160051c810160208510156103255750805b601f840160051c820191505b818110156103455760008155600101610331565b50505b505050565b81516001600160401b03811115610366576103666102ae565b61037a8161037484546102c4565b846102fe565b6020601f8211600181146103ae57600083156103965750848201515b600019600385901b1c1916600184901b178455610345565b600084815260208120601f198516915b828110156103de57878501518255602094850194600190920191016103be565b50848210156103fc5786840151600019600387901b60f8161c191681555b50505050600190811b01905550565b634e487b7160e01b600052601160045260246000fd5b80820281158282048414176104385761043861040b565b92915050565b60008261045b57634e487b7160e01b600052601260045260246000fd5b500490565b808201808211156104385761043861040b565b60805161167b6104b86000396000818161048f0152818161078c0152818161081201528181611055015281816110ad0152818161111f0152611269015261167b6000f3fe60806040526004361061016a5760003560e01c806395d89b41116100d1578063bc3371821161008a578063dfa7649011610064578063dfa764901461043e578063f2fde38b1461045d578063f887ea401461047d578063fbfa77cf146104b157600080fd5b8063bc337182146103b8578063cec10c11146103d8578063dd62ed3e146103f857600080fd5b806395d89b41146103185780639e78fb4f1461032d578063a071dcf414610342578063a457c2d714610358578063a8aa1b3114610378578063a9059cbb1461039857600080fd5b8063395093511161012357806339509351146102425780633fb0da64146102625780636817031b1461027857806370a082311461029a5780637437681e146102d05780638da5cb5b146102e657600080fd5b806301ac145b1461017657806306fdde031461019f578063095ea7b3146101c157806318160ddd146101f157806323b872dd14610206578063313ce5671461022657600080fd5b3661017157005b600080fd5b34801561018257600080fd5b5061018c600a5481565b6040519081526020015b60405180910390f35b3480156101ab57600080fd5b506101b46104d1565b6040516101969190611319565b3480156101cd57600080fd5b506101e16101dc36600461137f565b610563565b6040519015158152602001610196565b3480156101fd57600080fd5b5060025461018c565b34801561021257600080fd5b506101e16102213660046113ab565b61057a565b34801561023257600080fd5b5060405160128152602001610196565b34801561024e57600080fd5b506101e161025d36600461137f565b610629565b34801561026e57600080fd5b5061018c60095481565b34801561028457600080fd5b506102986102933660046113ec565b610665565b005b3480156102a657600080fd5b5061018c6102b53660046113ec565b6001600160a01b031660009081526020819052604090205490565b3480156102dc57600080fd5b5061018c600b5481565b3480156102f257600080fd5b506005546001600160a01b03165b6040516001600160a01b039091168152602001610196565b34801561032457600080fd5b506101b46106ff565b34801561033957600080fd5b5061029861070e565b34801561034e57600080fd5b5061018c60085481565b34801561036457600080fd5b506101e161037336600461137f565b61093d565b34801561038457600080fd5b50600654610300906001600160a01b031681565b3480156103a457600080fd5b506101e16103b336600461137f565b6109d6565b3480156103c457600080fd5b506102986103d3366004611410565b6109e3565b3480156103e457600080fd5b506102986103f3366004611429565b610a85565b34801561040457600080fd5b5061018c610413366004611455565b6001600160a01b03918216600090815260016020908152604080832093909416825291909152205490565b34801561044a57600080fd5b50600c546101e190610100900460ff1681565b34801561046957600080fd5b506102986104783660046113ec565b610abd565b34801561048957600080fd5b506103007f000000000000000000000000000000000000000000000000000000000000000081565b3480156104bd57600080fd5b50600754610300906001600160a01b031681565b6060600380546104e09061148e565b80601f016020809104026020016040519081016040528092919081815260200182805461050c9061148e565b80156105595780601f1061052e57610100808354040283529160200191610559565b820191906000526020600020905b81548152906001019060200180831161053c57829003601f168201915b5050505050905090565b6000610570338484610ba8565b5060015b92915050565b6000610587848484610ccc565b6001600160a01b0384166000908152600160209081526040808320338452909152902054828110156106115760405162461bcd60e51b815260206004820152602860248201527f45524332303a207472616e7366657220616d6f756e74206578636565647320616044820152676c6c6f77616e636560c01b60648201526084015b60405180910390fd5b61061e8533858403610ba8565b506001949350505050565b3360008181526001602090815260408083206001600160a01b038716845290915281205490916105709185906106609086906114de565b610ba8565b6005546001600160a01b0316331461068f5760405162461bcd60e51b8152600401610608906114f1565b6001600160a01b0381166106dd5760405162461bcd60e51b8152602060048201526015602482015274496e76616c6964207661756c74206164647265737360581b6044820152606401610608565b600780546001600160a01b0319166001600160a01b0392909216919091179055565b6060600480546104e09061148e565b6005546001600160a01b031633146107385760405162461bcd60e51b8152600401610608906114f1565b6006546001600160a01b0316156107885760405162461bcd60e51b815260206004820152601460248201527314185a5c88185b1c9958591e4818dc99585d195960621b6044820152606401610608565b60007f00000000000000000000000000000000000000000000000000000000000000006001600160a01b031663c45a01556040518163ffffffff1660e01b8152600401602060405180830381865afa1580156107e8573d6000803e3d6000fd5b505050506040513d601f19601f8201168201806040525081019061080c9190611526565b905060007f00000000000000000000000000000000000000000000000000000000000000006001600160a01b031663ad5c46486040518163ffffffff1660e01b8152600401602060405180830381865afa15801561086e573d6000803e3d6000fd5b505050506040513d601f19601f820116820180604052508101906108929190611526565b6040516364e329cb60e11b81523060048201526001600160a01b0380831660248301529192509083169063c9c65396906044016020604051808303816000875af11580156108e4573d6000803e3d6000fd5b505050506040513d601f19601f820116820180604052508101906109089190611526565b600680546001600160a01b03929092166001600160a01b03199092169190911790555050600c805461ff001916610100179055565b3360009081526001602090815260408083206001600160a01b0386168452909152812054828110156109bf5760405162461bcd60e51b815260206004820152602560248201527f45524332303a2064656372656173656420616c6c6f77616e63652062656c6f77604482015264207a65726f60d81b6064820152608401610608565b6109cc3385858403610ba8565b5060019392505050565b6000610570338484610ccc565b6005546001600160a01b03163314610a0d5760405162461bcd60e51b8152600401610608906114f1565b600081118015610a1e575060648111155b610a5f5760405162461bcd60e51b8152602060048201526012602482015271496e76616c69642070657263656e7461676560701b6044820152606401610608565b606481610a6b60025490565b610a759190611543565b610a7f919061155a565b600b5550565b6005546001600160a01b03163314610aaf5760405162461bcd60e51b8152600401610608906114f1565b600892909255600955600a55565b6005546001600160a01b03163314610ae75760405162461bcd60e51b8152600401610608906114f1565b6001600160a01b038116610b4c5760405162461bcd60e51b815260206004820152602660248201527f4f776e61626c653a206e6577206f776e657220697320746865207a65726f206160448201526564647265737360d01b6064820152608401610608565b6005546040516001600160a01b038084169216907f8be0079c531659141344cd1fd0a4f28419497f9722a3daafe3b4186f6b6457e090600090a3600580546001600160a01b0319166001600160a01b0392909216919091179055565b6001600160a01b038316610c0a5760405162461bcd60e51b8152602060048201526024808201527f45524332303a20617070726f76652066726f6d20746865207a65726f206164646044820152637265737360e01b6064820152608401610608565b6001600160a01b038216610c6b5760405162461bcd60e51b815260206004820152602260248201527f45524332303a20617070726f766520746f20746865207a65726f206164647265604482015261737360f01b6064820152608401610608565b6001600160a01b0383811660008181526001602090815260408083209487168084529482529182902085905590518481527f8c5be1e5ebec7d5bd14f71427d1e84f3dd0314c0f7b2291e5b200ac8c7c3b925910160405180910390a3505050565b6001600160a01b038316610cea57610ce5838383610e73565b505050565b600b5481111580610d0857506005546001600160a01b038481169116145b80610d2057506005546001600160a01b038381169116145b610d5d5760405162461bcd60e51b815260206004820152600e60248201526d08af0c6cacac8e640dac2f040e8f60931b6044820152606401610608565b600c54610100900460ff168015610d775750600c5460ff16155b8015610d9057506006546001600160a01b038381169116145b15610e6c5760006064600a5483610da79190611543565b610db1919061155a565b90506000606460095484610dc59190611543565b610dcf919061155a565b90506000606460085485610de39190611543565b610ded919061155a565b9050600081610dfc84866114de565b610e0691906114de565b90508315610e2657600754610e269088906001600160a01b031686610e73565b6000610e3283856114de565b1115610e4c57610e4c8730610e4785876114de565b610e73565b8215610e5b57610e5b83611042565b610e65818661157c565b9450505050505b610ce58383835b6001600160a01b038316610ed75760405162461bcd60e51b815260206004820152602560248201527f45524332303a207472616e736665722066726f6d20746865207a65726f206164604482015264647265737360d81b6064820152608401610608565b6001600160a01b038216610f395760405162461bcd60e51b815260206004820152602360248201527f45524332303a207472616e7366657220746f20746865207a65726f206164647260448201526265737360e81b6064820152608401610608565b6001600160a01b03831660009081526020819052604090205481811015610fb15760405162461bcd60e51b815260206004820152602660248201527f45524332303a207472616e7366657220616d6f756e7420657863656564732062604482015265616c616e636560d01b6064820152608401610608565b6001600160a01b03808516600090815260208190526040808220858503905591851681529081208054849290610fe89084906114de565b92505081905550826001600160a01b0316846001600160a01b03167fddf252ad1be2c89b69c2b068fc378daa952ba7f163c4a11628f55a4df523b3ef8460405161103491815260200190565b60405180910390a350505050565b600c805460ff1916600117905561107a307f000000000000000000000000000000000000000000000000000000000000000083610ba8565b600061108760028361155a565b9050600061109361120e565b60405163791ac94760e01b81529091506001600160a01b037f0000000000000000000000000000000000000000000000000000000000000000169063791ac947906110eb90859060009086903090429060040161158f565b600060405180830381600087803b15801561110557600080fd5b505af1158015611119573d6000803e3d6000fd5b505050507f00000000000000000000000000000000000000000000000000000000000000006001600160a01b031663f305d7194730858761115a919061157c565b60008061116f6005546001600160a01b031690565b60405160e088901b6001600160e01b03191681526001600160a01b03958616600482015260248101949094526044840192909252606483015290911660848201524260a482015260c40160606040518083038185885af11580156111d7573d6000803e3d6000fd5b50505050506040513d601f19601f820116820180604052508101906111fc9190611601565b5050600c805460ff1916905550505050565b6040805160028082526060808301845292600092919060208301908036833701905050905030816000815181106112475761124761162f565b60200260200101906001600160a01b031690816001600160a01b0316815250507f00000000000000000000000000000000000000000000000000000000000000006001600160a01b031663ad5c46486040518163ffffffff1660e01b8152600401602060405180830381865afa1580156112c5573d6000803e3d6000fd5b505050506040513d601f19601f820116820180604052508101906112e99190611526565b816001815181106112fc576112fc61162f565b6001600160a01b0390921660209283029190910190910152919050565b602081526000825180602084015260005b81811015611347576020818601810151604086840101520161132a565b506000604082850101526040601f19601f83011684010191505092915050565b6001600160a01b038116811461137c57600080fd5b50565b6000806040838503121561139257600080fd5b823561139d81611367565b946020939093013593505050565b6000806000606084860312156113c057600080fd5b83356113cb81611367565b925060208401356113db81611367565b929592945050506040919091013590565b6000602082840312156113fe57600080fd5b813561140981611367565b9392505050565b60006020828403121561142257600080fd5b5035919050565b60008060006060848603121561143e57600080fd5b505081359360208301359350604090920135919050565b6000806040838503121561146857600080fd5b823561147381611367565b9150602083013561148381611367565b809150509250929050565b600181811c908216806114a257607f821691505b6020821081036114c257634e487b7160e01b600052602260045260246000fd5b50919050565b634e487b7160e01b600052601160045260246000fd5b80820180821115610574576105746114c8565b6020808252818101527f4f776e61626c653a2063616c6c6572206973206e6f7420746865206f776e6572604082015260600190565b60006020828403121561153857600080fd5b815161140981611367565b8082028115828204841417610574576105746114c8565b60008261157757634e487b7160e01b600052601260045260246000fd5b500490565b81810381811115610574576105746114c8565b600060a0820187835286602084015260a0604084015280865180835260c08501915060208801925060005b818110156115e15783516001600160a01b03168352602093840193909201916001016115ba565b50506001600160a01b039590951660608401525050608001529392505050565b60008060006060848603121561161657600080fd5b5050815160208301516040909301519094929350919050565b634e487b7160e01b600052603260045260246000fdfea264697066735822122002994e4e95a5318cf0c62c7fa8c31ac3877ca0e6a2a476b621e65ed53e74354a64736f6c634300081c0033",
  "linkReferences": {},
  "deployedLinkReferences": {}
}